:100000000C945D000C9485000C9485000C9499036D
:100010000C9499030C9499030C9485000C9485001E
:100020000C9485000C9485000C9485000C9485003C
:100030000C9485000C9485000C9485000C9485002C
:100040000C94F7020C9485000C9467030C94410304
:100050000C9485000C9485000C9485000C9485000C
:100060000C9485000C9485000000000024002700FB
:100070002A0000000000250028002B0004040404CE
:100080000404040402020202020203030303030342
:10009000010204081020408001020408102001021F
:1000A00004081020000000080002010000030407FB
:1000B0000000000000000000A30311241FBECFEFCA
:1000C000D8E0DEBFCDBF11E0A0E0B1E0E6EDF9E0A1
:1000D00002C005900D92A231B107D9F722E0A2E14A
:1000E000B1E001C01D92AA37B207E1F710E0CDE5FB
:1000F000D0E004C02197FE010E94E304CC35D10773
:10010000C9F70E946E040C94E9040C940000089551
:1001100008950895089508950895089508950895F7
:1001200090E0FC01EC55FF4F2491FC01E057FF4F9C
:100130003491FC01E458FF4FE491EE23C9F02223EF
:1001400039F0233001F1A8F4213019F1223029F1DE
:10015000F0E0EE0FFF1FEE58FF4FA591B4918FB75F
:10016000F894EC91611126C030953E233C938FBFEB
:1001700008952730A9F02830C9F0243049F780913C
:1001800080008F7D03C0809180008F7780938000F6
:10019000DFCF84B58F7784BDDBCF84B58F7DFBCF78
:1001A0008091B0008F778093B000D2CF8091B00063
:1001B0008F7DF9CF3E2BDACF3FB7F89480911901AC
:1001C00090911A01A0911B01B0911C0126B5A89B2A
:1001D00005C02F3F19F00196A11DB11D3FBFBA2FD9
:1001E000A92F982F8827BC01CD01620F711D811D99
:1001F000911D42E0660F771F881F991F4A95D1F71E
:1002000008958F929F92AF92BF92CF92DF92EF921A
:10021000FF920E94DC004B015C0188EEC82E83E057
:10022000D82EE12CF12C0E94DC00681979098A098A
:100230009B09683E734081059105A8F321E0C21A2D
:10024000D108E108F10888EE880E83E0981EA11C11
:10025000B11CC114D104E104F10429F7FF90EF901F
:10026000DF90CF90BF90AF909F908F900895AF9206
:10027000BF92CF92DF92EF92FF920F931F93CF9393
:10028000DF936C017B018B01040F151FEB015E01F5
:10029000AE18BF08C017D10759F06991D601ED918A
:1002A000FC910190F081E02DC6010995892B79F729
:1002B000C501DF91CF911F910F91FF90EF90DF90DB
:1002C000CF90BF90AF900895FC01538D448D252FA2
:1002D00030E0842F90E0821B930B541710F0CF96E0
:1002E000089501970895FC01918D828D981761F012
:1002F000A28DAE0FBF2FB11D5D968C91928D9F5F29
:100300009F73928F90E008958FEF9FEF0895FC0107
:10031000918D828D981731F0828DE80FF11D858DBA
:1003200090E008958FEF9FEF0895FC01918D228D4D
:10033000892F90E0805C9F4F821B91098F739927D2
:1003400008958DE191E00E94950121E0892B09F447
:1003500020E0822F089580E090E0892B29F00E9410
:10036000A10181110C9400000895FC01A48DA80F37
:10037000B92FB11DA35ABF4F2C91848D90E00196E7
:100380008F739927848FA689B7892C93A089B18907
:100390008C91837080648C93938D848D981306C0A8
:1003A0000288F389E02D80818F7D80830895EF920C
:1003B000FF920F931F93CF93DF93EC0181E0888F1F
:1003C0009B8D8C8D98131AC0E889F989808185FFEF
:1003D00015C09FB7F894EE89FF896083E889F98991
:1003E00080818370806480839FBF81E090E0DF9193
:1003F000CF911F910F91FF90EF900895F62E0B8DE6
:1004000010E00F5F1F4F0F731127E02E8C8D8E11A0
:100410000CC00FB607FCFACFE889F989808185FF07
:10042000F5CFCE010E94B501F1CFEB8DEC0FFD2F82
:10043000F11DE35AFF4FF0829FB7F8940B8FEA89C2
:10044000FB8980818062CFCFCF93DF93EC01888DD1
:100450008823B9F0AA89BB89E889F9898C9185FD3F
:1004600003C0808186FD0DC00FB607FCF7CF8C91CD
:1004700085FFF2CF808185FFEDCFCE010E94B501CF
:10048000E9CFDF91CF910895CF93DF93009729F1C2
:10049000EC01C05CDF4F888199810097F1F0DC01AD
:1004A000ED91FC910190F081E02D69EF0995888133
:1004B0009981DC01ED91FC910190F081E02D62E0E9
:1004C000099588819981DC01ED91FC910190F08181
:1004D000E02D65E0DF91CF910994DF91CF910895F0
:1004E000CF92DF92EF92FF920F931F93CF93DF9300
:1004F000009709F473C0FC01E058FF4FC080CC2086
:1005000009F46CC0EC01C05CDF4FA881B981109781
:1005100009F464C0FC01EF57FF4FE080F180F70160
:1005200011810081ED91FC9111970190F081E02DF6
:1005300060EFCD01099588819981DC01ED91FC91F5
:100540000190F081E02D69E7099588819981DC01AE
:10055000ED91FC910190F081E02D602F099588814B
:100560009981DC01ED91FC910190F081E02D612FEA
:1005700009958701EC2DE250FF0B6F01888199816D
:10058000DC01ED91FC910190F081E02D98012E1994
:100590003F092C153D05C0F4D80112966C916F7778
:1005A000099588819981F801628170E0660F672F53
:1005B000661F770BDC01ED91FC910190F081E02D3D
:1005C00009950F5F1F4FDACF67EFDF91CF911F9132
:1005D0000F91FF90EF90DF90CF900994DF91CF9132
:1005E0001F910F91FF90EF90DF90CF9008951F9291
:1005F0000F920FB60F9211242F933F938F939F93D7
:10060000AF93BF938091150190911601A0911701AE
:10061000B09118013091140123E0230F2D3758F5C4
:100620000196A11DB11D2093140180931501909393
:100630001601A0931701B0931801809119019091B0
:100640001A01A0911B01B0911C010196A11DB11DC1
:100650008093190190931A01A0931B01B0931C0180
:10066000BF91AF919F918F913F912F910F900FBEAE
:100670000F901F90189526E8230F0296A11DB11D1B
:10068000D2CF1F920F920FB60F9211242F933F9348
:100690004F935F936F937F938F939F93AF93BF938A
:1006A000EF93FF938DE191E00E94B501FF91EF91EF
:1006B000BF91AF919F918F917F916F915F914F917A
:1006C0003F912F910F900FBE0F901F9018951F9282
:1006D0000F920FB60F9211242F938F939F93EF9346
:1006E000FF93E0912D01F0912E018081E091330183
:1006F000F091340182FD1BC09081809136018F5FA3
:100700008F7320913701821741F0E0913601F0E0BC
:10071000E35EFE4F958F80933601FF91EF919F919D
:100720008F912F910F900FBE0F901F901895808181
:10073000F4CF1F920F920FB60F9211240F900FBE9D
:100740000F901F901895EDE1F1E01382128288EE70
:1007500093E0A0E0B0E084839583A683B78384E030
:1007600091E09183808385EC90E09587848784EC89
:1007700090E09787868780EC90E0918B808B81EC6E
:1007800090E0938B828B82EC90E0958B848B86EC4F
:1007900090E0978B868B118E128E138E148E8AEBBF
:1007A00091E01092FB011092FA019093FE01809368
:1007B000FD0120E430E0309300022093FF0110920D
:1007C000010210920202109204021092030210928F
:1007D000050210920702109206021092090210926E
:1007E000080210920B0210920A0210920D0210924F
:1007F0000C0210920F0210920E021092110210922F
:10080000100210921302109212021092190210920A
:10081000180210921B0210921A0210921D021092DE
:100820001C0210921F0210921E0210922D021092B2
:100830002C021092FC0110923A0210923C0210928B
:100840003B021092790227E830E030932102209396
:10085000200228E830E0309323022093220229E886
:1008600030E030932502209324022AE830E03093D0
:100870002702209326022BE830E0309329022093B0
:1008800028022CE830E030932B0220932A022DE836
:1008900030E030932F0220932E022EE830E0309388
:1008A00031022093300220E732E03093330220936C
:1008B0003202909315028093140224E432E03093C4
:1008C00035022093340290931702809316028FE82A
:1008D00090E090933702809336020895789484B51F
:1008E000826084BD84B5816084BD85B5826085BD2C
:1008F00085B5816085BD80916E00816080936E00BA
:1009000010928100809181008260809381008091AB
:10091000810081608093810080918000816080935C
:1009200080008091B10084608093B1008091B0001C
:1009300081608093B00080917A00846080937A0017
:1009400080917A00826080937A0080917A00816041
:1009500080937A0080917A00806880937A00109268
:10096000C100E0E9F0E02491ECE7F0E08491882315
:1009700099F090E0880F991FFC01E859FF4FA5916D
:10098000B491FC01EE58FF4F859194918FB7F89484
:10099000EC91E22BEC938FBFC0E0D0E061E080E00F
:1009A0000E9490000E94010160E080E00E9490009F
:1009B0000E940101209791F30E94A101882371F305
:1009C0000E940000EBCFEE0FFF1F0590F491E02D89
:0609D0000994F894FFCF2A
:1009D60000000000D701370164012402950173016C
:0209E600870187
:00000001FF
